{
    "_format": "hh-sol-artifact-1",
    "contractName": "AnimeNFT",
    "sourceName": "contracts/AnimeNFT.sol",
    "abi": [
        {
            "inputs": [],
            "stateMutability": "nonpayable",
            "type": "constructor"
        },
        {
            "anonymous": false,
            "inputs": [
                {
                    "indexed": true,
                    "internalType": "address",
                    "name": "owner",
                    "type": "address"
                },
                {
                    "indexed": true,
                    "internalType": "address",
                    "name": "approved",
                    "type": "address"
                },
                {
                    "indexed": true,
                    "internalType": "uint256",
                    "name": "tokenId",
                    "type": "uint256"
                }
            ],
            "name": "Approval",
            "type": "event"
        },
        {
            "anonymous": false,
            "inputs": [
                {
                    "indexed": true,
                    "internalType": "address",
                    "name": "owner",
                    "type": "address"
                },
                {
                    "indexed": true,
                    "internalType": "address",
                    "name": "operator",
                    "type": "address"
                },
                {
                    "indexed": false,
                    "internalType": "bool",
                    "name": "approved",
                    "type": "bool"
                }
            ],
            "name": "ApprovalForAll",
            "type": "event"
        },
        {
            "anonymous": false,
            "inputs": [
                {
                    "indexed": true,
                    "internalType": "address",
                    "name": "from",
                    "type": "address"
                },
                {
                    "indexed": true,
                    "internalType": "address",
                    "name": "to",
                    "type": "address"
                },
                {
                    "indexed": true,
                    "internalType": "uint256",
                    "name": "tokenId",
                    "type": "uint256"
                }
            ],
            "name": "Transfer",
            "type": "event"
        },
        {
            "inputs": [
                {
                    "internalType": "address",
                    "name": "to",
                    "type": "address"
                },
                {
                    "internalType": "uint256",
                    "name": "tokenId",
                    "type": "uint256"
                }
            ],
            "name": "approve",
            "outputs": [],
            "stateMutability": "nonpayable",
            "type": "function"
        },
        {
            "inputs": [
                {
                    "internalType": "address",
                    "name": "owner",
                    "type": "address"
                }
            ],
            "name": "balanceOf",
            "outputs": [
                {
                    "internalType": "uint256",
                    "name": "",
                    "type": "uint256"
                }
            ],
            "stateMutability": "view",
            "type": "function"
        },
        {
            "inputs": [
                {
                    "internalType": "uint256",
                    "name": "tokenId",
                    "type": "uint256"
                }
            ],
            "name": "getApproved",
            "outputs": [
                {
                    "internalType": "address",
                    "name": "",
                    "type": "address"
                }
            ],
            "stateMutability": "view",
            "type": "function"
        },
        {
            "inputs": [
                {
                    "internalType": "address",
                    "name": "owner",
                    "type": "address"
                },
                {
                    "internalType": "address",
                    "name": "operator",
                    "type": "address"
                }
            ],
            "name": "isApprovedForAll",
            "outputs": [
                {
                    "internalType": "bool",
                    "name": "",
                    "type": "bool"
                }
            ],
            "stateMutability": "view",
            "type": "function"
        },
        {
            "inputs": [],
            "name": "makeAnimeNFT",
            "outputs": [],
            "stateMutability": "nonpayable",
            "type": "function"
        },
        {
            "inputs": [],
            "name": "name",
            "outputs": [
                {
                    "internalType": "string",
                    "name": "",
                    "type": "string"
                }
            ],
            "stateMutability": "view",
            "type": "function"
        },
        {
            "inputs": [
                {
                    "internalType": "uint256",
                    "name": "tokenId",
                    "type": "uint256"
                }
            ],
            "name": "ownerOf",
            "outputs": [
                {
                    "internalType": "address",
                    "name": "",
                    "type": "address"
                }
            ],
            "stateMutability": "view",
            "type": "function"
        },
        {
            "inputs": [
                {
                    "internalType": "string[]",
                    "name": "_wordArray",
                    "type": "string[]"
                },
                {
                    "internalType": "uint256",
                    "name": "_tokenId",
                    "type": "uint256"
                }
            ],
            "name": "pickRandomWord",
            "outputs": [
                {
                    "internalType": "string",
                    "name": "",
                    "type": "string"
                }
            ],
            "stateMutability": "pure",
            "type": "function"
        },
        {
            "inputs": [
                {
                    "internalType": "address",
                    "name": "from",
                    "type": "address"
                },
                {
                    "internalType": "address",
                    "name": "to",
                    "type": "address"
                },
                {
                    "internalType": "uint256",
                    "name": "tokenId",
                    "type": "uint256"
                }
            ],
            "name": "safeTransferFrom",
            "outputs": [],
            "stateMutability": "nonpayable",
            "type": "function"
        },
        {
            "inputs": [
                {
                    "internalType": "address",
                    "name": "from",
                    "type": "address"
                },
                {
                    "internalType": "address",
                    "name": "to",
                    "type": "address"
                },
                {
                    "internalType": "uint256",
                    "name": "tokenId",
                    "type": "uint256"
                },
                {
                    "internalType": "bytes",
                    "name": "data",
                    "type": "bytes"
                }
            ],
            "name": "safeTransferFrom",
            "outputs": [],
            "stateMutability": "nonpayable",
            "type": "function"
        },
        {
            "inputs": [
                {
                    "internalType": "address",
                    "name": "operator",
                    "type": "address"
                },
                {
                    "internalType": "bool",
                    "name": "approved",
                    "type": "bool"
                }
            ],
            "name": "setApprovalForAll",
            "outputs": [],
            "stateMutability": "nonpayable",
            "type": "function"
        },
        {
            "inputs": [
                {
                    "internalType": "bytes4",
                    "name": "interfaceId",
                    "type": "bytes4"
                }
            ],
            "name": "supportsInterface",
            "outputs": [
                {
                    "internalType": "bool",
                    "name": "",
                    "type": "bool"
                }
            ],
            "stateMutability": "view",
            "type": "function"
        },
        {
            "inputs": [],
            "name": "symbol",
            "outputs": [
                {
                    "internalType": "string",
                    "name": "",
                    "type": "string"
                }
            ],
            "stateMutability": "view",
            "type": "function"
        },
        {
            "inputs": [
                {
                    "internalType": "uint256",
                    "name": "_tokenId",
                    "type": "uint256"
                }
            ],
            "name": "tokenURI",
            "outputs": [
                {
                    "internalType": "string",
                    "name": "",
                    "type": "string"
                }
            ],
            "stateMutability": "view",
            "type": "function"
        },
        {
            "inputs": [
                {
                    "internalType": "address",
                    "name": "from",
                    "type": "address"
                },
                {
                    "internalType": "address",
                    "name": "to",
                    "type": "address"
                },
                {
                    "internalType": "uint256",
                    "name": "tokenId",
                    "type": "uint256"
                }
            ],
            "name": "transferFrom",
            "outputs": [],
            "stateMutability": "nonpayable",
            "type": "function"
        }
    ],
    "bytecode": "0x60806040526040518060400160405280600981526020017f56616c6f72616e742d0000000000000000000000000000000000000000000000815250600790816200004a91906200089b565b506040518061024001604052806040518060400160405280600581526020017f417374726100000000000000000000000000000000000000000000000000000081525081526020016040518060400160405280600681526020017f427265616368000000000000000000000000000000000000000000000000000081525081526020016040518060400160405280600981526020017f4272696d73746f6e65000000000000000000000000000000000000000000000081525081526020016040518060400160405280600781526020017f4368616d6265720000000000000000000000000000000000000000000000000081525081526020016040518060400160405280600681526020017f437970686572000000000000000000000000000000000000000000000000000081525081526020016040518060400160405280600481526020017f4a6574740000000000000000000000000000000000000000000000000000000081525081526020016040518060400160405280600581526020017f4b61792f4f00000000000000000000000000000000000000000000000000000081525081526020016040518060400160405280600781526020017f4b696c6c6a6f790000000000000000000000000000000000000000000000000081525081526020016040518060400160405280600481526020017f4e656f6e0000000000000000000000000000000000000000000000000000000081525081526020016040518060400160405280600481526020017f4f6d656e0000000000000000000000000000000000000000000000000000000081525081526020016040518060400160405280600781526020017f50686f656e69780000000000000000000000000000000000000000000000000081525081526020016040518060400160405280600481526020017f52617a650000000000000000000000000000000000000000000000000000000081525081526020016040518060400160405280600581526020017f5265796e6100000000000000000000000000000000000000000000000000000081525081526020016040518060400160405280600481526020017f536167650000000000000000000000000000000000000000000000000000000081525081526020016040518060400160405280600481526020017f536b79650000000000000000000000000000000000000000000000000000000081525081526020016040518060400160405280600481526020017f536f76610000000000000000000000000000000000000000000000000000000081525081526020016040518060400160405280600581526020017f566970657200000000000000000000000000000000000000000000000000000081525081526020016040518060400160405280600481526020017f596f72750000000000000000000000000000000000000000000000000000000081525081525060089060126200048d92919062000534565b503480156200049b57600080fd5b506040518060400160405280600881526020017f416e696d654e46540000000000000000000000000000000000000000000000008152506040518060400160405280600581526020017f414e494d4500000000000000000000000000000000000000000000000000000081525081600090816200051991906200089b565b5080600190816200052b91906200089b565b50505062000982565b82805482825590600052602060002090810192821562000581579160200282015b82811115620005805782518290816200056f91906200089b565b509160200191906001019062000555565b5b50905062000590919062000594565b5090565b5b80821115620005b85760008181620005ae9190620005bc565b5060010162000595565b5090565b508054620005ca906200068a565b6000825580601f10620005de5750620005ff565b601f016020900490600052602060002090810190620005fe919062000602565b5b50565b5b808211156200061d57600081600090555060010162000603565b5090565b600081519050919050565b7f4e487b7100000000000000000000000000000000000000000000000000000000600052604160045260246000fd5b7f4e487b7100000000000000000000000000000000000000000000000000000000600052602260045260246000fd5b60006002820490506001821680620006a357607f821691505b602082108103620006b957620006b86200065b565b5b50919050565b60008190508160005260206000209050919050565b60006020601f8301049050919050565b600082821b905092915050565b600060088302620007237fffffffffffffffffffffffffffffffffffffffffffffffffffffffffffffffff82620006e4565b6200072f8683620006e4565b95508019841693508086168417925050509392505050565b6000819050919050565b6000819050919050565b60006200077c62000776620007708462000747565b62000751565b62000747565b9050919050565b6000819050919050565b62000798836200075b565b620007b0620007a78262000783565b848454620006f1565b825550505050565b600090565b620007c7620007b8565b620007d48184846200078d565b505050565b5b81811015620007fc57620007f0600082620007bd565b600181019050620007da565b5050565b601f8211156200084b576200081581620006bf565b6200082084620006d4565b8101602085101562000830578190505b620008486200083f85620006d4565b830182620007d9565b50505b505050565b600082821c905092915050565b6000620008706000198460080262000850565b1980831691505092915050565b60006200088b83836200085d565b9150826002028217905092915050565b620008a68262000621565b67ffffffffffffffff811115620008c257620008c16200062c565b5b620008ce82546200068a565b620008db82828562000800565b600060209050601f831160018114620009135760008415620008fe578287015190505b6200090a85826200087d565b8655506200097a565b601f1984166200092386620006bf565b60005b828110156200094d5784890151825560018201915060208501945060208101905062000926565b868310156200096d578489015162000969601f8916826200085d565b8355505b6001600288020188555050505b505050505050565b6131ff80620009926000396000f3fe608060405234801561001057600080fd5b50600436106100f55760003560e01c80636352211e11610097578063ab6afe1111610066578063ab6afe1114610296578063b88d4fde146102a0578063c87b56dd146102bc578063e985e9c5146102ec576100f5565b80636352211e146101fc57806370a082311461022c57806395d89b411461025c578063a22cb4651461027a576100f5565b8063095ea7b3116100d3578063095ea7b31461017857806323b872dd1461019457806342842e0e146101b05780634ebb5e73146101cc576100f5565b806301ffc9a7146100fa57806306fdde031461012a578063081812fc14610148575b600080fd5b610114600480360381019061010f9190611c19565b61031c565b6040516101219190611c61565b60405180910390f35b6101326103fe565b60405161013f9190611d0c565b60405180910390f35b610162600480360381019061015d9190611d64565b610490565b60405161016f9190611dd2565b60405180910390f35b610192600480360381019061018d9190611e19565b6104d6565b005b6101ae60048036038101906101a99190611e59565b6105ed565b005b6101ca60048036038101906101c59190611e59565b61064d565b005b6101e660048036038101906101e191906120c7565b61066d565b6040516101f39190611d0c565b60405180910390f35b61021660048036038101906102119190611d64565b6106d6565b6040516102239190611dd2565b60405180910390f35b61024660048036038101906102419190612123565b610787565b604051610253919061215f565b60405180910390f35b61026461083e565b6040516102719190611d0c565b60405180910390f35b610294600480360381019061028f91906121a6565b6108d0565b005b61029e6108e6565b005b6102ba60048036038101906102b59190612287565b610915565b005b6102d660048036038101906102d19190611d64565b610977565b6040516102e39190611d0c565b60405180910390f35b6103066004803603810190610301919061230a565b610a49565b6040516103139190611c61565b60405180910390f35b60007f80ac58cd000000000000000000000000000000000000000000000000000000007bffffffffffffffffffffffffffffffffffffffffffffffffffffffff1916827bffffffffffffffffffffffffffffffffffffffffffffffffffffffff191614806103e757507f5b5e139f000000000000000000000000000000000000000000000000000000007bffffffffffffffffffffffffffffffffffffffffffffffffffffffff1916827bffffffffffffffffffffffffffffffffffffffffffffffffffffffff1916145b806103f757506103f682610add565b5b9050919050565b60606000805461040d90612379565b80601f016020809104026020016040519081016040528092919081815260200182805461043990612379565b80156104865780601f1061045b57610100808354040283529160200191610486565b820191906000526020600020905b81548152906001019060200180831161046957829003601f168201915b5050505050905090565b600061049b82610b47565b6004600083815260200190815260200160002060009054906101000a900473ffffffffffffffffffffffffffffffffffffffff169050919050565b60006104e1826106d6565b90508073ffffffffffffffffffffffffffffffffffffffff168373ffffffffffffffffffffffffffffffffffffffff1603610551576040517f08c379a00000000000000000000000000000000000000000000000000000000081526004016105489061241c565b60405180910390fd5b8073ffffffffffffffffffffffffffffffffffffffff16610570610b92565b73ffffffffffffffffffffffffffffffffffffffff16148061059f575061059e81610599610b92565b610a49565b5b6105de576040517f08c379a00000000000000000000000000000000000000000000000000000000081526004016105d5906124ae565b60405180910390fd5b6105e88383610b9a565b505050565b6105fe6105f8610b92565b82610c53565b61063d576040517f08c379a000000000000000000000000000000000000000000000000000000000815260040161063490612540565b60405180910390fd5b610648838383610ce8565b505050565b61066883838360405180602001604052806000815250610915565b505050565b606060006106a161067d84610f4e565b60405160200161068d91906125e8565b6040516020818303038152906040526110ae565b90508351816106b09190612639565b90508381815181106106c5576106c461266a565b5b602002602001015191505092915050565b6000806002600084815260200190815260200160002060009054906101000a900473ffffffffffffffffffffffffffffffffffffffff169050600073ffffffffffffffffffffffffffffffffffffffff168173ffffffffffffffffffffffffffffffffffffffff160361077e576040517f08c379a0000000000000000000000000000000000000000000000000000000008152600401610775906126e5565b60405180910390fd5b80915050919050565b60008073ffffffffffffffffffffffffffffffffffffffff168273ffffffffffffffffffffffffffffffffffffffff16036107f7576040517f08c379a00000000000000000000000000000000000000000000000000000000081526004016107ee90612777565b60405180910390fd5b600360008373ffffffffffffffffffffffffffffffffffffffff1673ffffffffffffffffffffffffffffffffffffffff168152602001908152602001600020549050919050565b60606001805461084d90612379565b80601f016020809104026020016040519081016040528092919081815260200182805461087990612379565b80156108c65780601f1061089b576101008083540402835291602001916108c6565b820191906000526020600020905b8154815290600101906020018083116108a957829003601f168201915b5050505050905090565b6108e26108db610b92565b83836110e1565b5050565b60006108f2600661124d565b90506108fe338261125b565b61090781610977565b506109126006611279565b50565b610926610920610b92565b83610c53565b610965576040517f08c379a000000000000000000000000000000000000000000000000000000000815260040161095c90612540565b60405180910390fd5b6109718484848461128f565b50505050565b6060610982826112eb565b61098b57600080fd5b600061099683611357565b90506109d66040518060400160405280601581526020017f0a2d2d2d2d2d2d2d2d2d2d2d2d2d2d2d2d2d2d2d2d0000000000000000000000815250611501565b6109df81611501565b610a1d6040518060400160405280601581526020017f2d2d2d2d2d2d2d2d2d2d2d2d2d2d2d2d2d2d2d2d0a0000000000000000000000815250611501565b610a4060405180606001604052806025815260200161303660259139843361159a565b80915050919050565b6000600560008473ffffffffffffffffffffffffffffffffffffffff1673ffffffffffffffffffffffffffffffffffffffff16815260200190815260200160002060008373ffffffffffffffffffffffffffffffffffffffff1673ffffffffffffffffffffffffffffffffffffffff16815260200190815260200160002060009054906101000a900460ff16905092915050565b60007f01ffc9a7000000000000000000000000000000000000000000000000000000007bffffffffffffffffffffffffffffffffffffffffffffffffffffffff1916827bffffffffffffffffffffffffffffffffffffffffffffffffffffffff1916149050919050565b610b50816112eb565b610b8f576040517f08c379a0000000000000000000000000000000000000000000000000000000008152600401610b86906126e5565b60405180910390fd5b50565b600033905090565b816004600083815260200190815260200160002060006101000a81548173ffffffffffffffffffffffffffffffffffffffff021916908373ffffffffffffffffffffffffffffffffffffffff160217905550808273ffffffffffffffffffffffffffffffffffffffff16610c0d836106d6565b73ffffffffffffffffffffffffffffffffffffffff167f8c5be1e5ebec7d5bd14f71427d1e84f3dd0314c0f7b2291e5b200ac8c7c3b92560405160405180910390a45050565b600080610c5f836106d6565b90508073ffffffffffffffffffffffffffffffffffffffff168473ffffffffffffffffffffffffffffffffffffffff161480610ca15750610ca08185610a49565b5b80610cdf57508373ffffffffffffffffffffffffffffffffffffffff16610cc784610490565b73ffffffffffffffffffffffffffffffffffffffff16145b91505092915050565b8273ffffffffffffffffffffffffffffffffffffffff16610d08826106d6565b73ffffffffffffffffffffffffffffffffffffffff1614610d5e576040517f08c379a0000000000000000000000000000000000000000000000000000000008152600401610d5590612809565b60405180910390fd5b600073ffffffffffffffffffffffffffffffffffffffff168273ffffffffffffffffffffffffffffffffffffffff1603610dcd576040517f08c379a0000000000000000000000000000000000000000000000000000000008152600401610dc49061289b565b60405180910390fd5b610dd8838383611639565b610de3600082610b9a565b6001600360008573ffffffffffffffffffffffffffffffffffffffff1673ffffffffffffffffffffffffffffffffffffffff1681526020019081526020016000206000828254610e3391906128ea565b925050819055506001600360008473ffffffffffffffffffffffffffffffffffffffff1673ffffffffffffffffffffffffffffffffffffffff1681526020019081526020016000206000828254610e8a919061291e565b92505081905550816002600083815260200190815260200160002060006101000a81548173ffffffffffffffffffffffffffffffffffffffff021916908373ffffffffffffffffffffffffffffffffffffffff160217905550808273ffffffffffffffffffffffffffffffffffffffff168473ffffffffffffffffffffffffffffffffffffffff167fddf252ad1be2c89b69c2b068fc378daa952ba7f163c4a11628f55a4df523b3ef60405160405180910390a4610f4983838361163e565b505050565b606060008203610f95576040518060400160405280600181526020017f300000000000000000000000000000000000000000000000000000000000000081525090506110a9565b600082905060005b60008214610fc7578080610fb090612952565b915050600a82610fc0919061299a565b9150610f9d565b60008167ffffffffffffffff811115610fe357610fe2611eb1565b5b6040519080825280601f01601f1916602001820160405280156110155781602001600182028036833780820191505090505b5090505b600085146110a25760018261102e91906128ea565b9150600a8561103d9190612639565b6030611049919061291e565b60f81b81838151811061105f5761105e61266a565b5b60200101907effffffffffffffffffffffffffffffffffffffffffffffffffffffffffffff1916908160001a905350600a8561109b919061299a565b9450611019565b8093505050505b919050565b6000816040516020016110c191906129cb565b6040516020818303038152906040528051906020012060001c9050919050565b8173ffffffffffffffffffffffffffffffffffffffff168373ffffffffffffffffffffffffffffffffffffffff160361114f576040517f08c379a000000000000000000000000000000000000000000000000000000000815260040161114690612a2e565b60405180910390fd5b80600560008573ffffffffffffffffffffffffffffffffffffffff1673ffffffffffffffffffffffffffffffffffffffff16815260200190815260200160002060008473ffffffffffffffffffffffffffffffffffffffff1673ffffffffffffffffffffffffffffffffffffffff16815260200190815260200160002060006101000a81548160ff0219169083151502179055508173ffffffffffffffffffffffffffffffffffffffff168373ffffffffffffffffffffffffffffffffffffffff167f17307eab39ab6107e8899845ad3d59bd9653f200f220920489ca2b5937696c31836040516112409190611c61565b60405180910390a3505050565b600081600001549050919050565b611275828260405180602001604052806000815250611643565b5050565b6001816000016000828254019250508190555050565b61129a848484610ce8565b6112a68484848461169e565b6112e5576040517f08c379a00000000000000000000000000000000000000000000000000000000081526004016112dc90612ac0565b60405180910390fd5b50505050565b60008073ffffffffffffffffffffffffffffffffffffffff166002600084815260200190815260200160002060009054906101000a900473ffffffffffffffffffffffffffffffffffffffff1673ffffffffffffffffffffffffffffffffffffffff1614159050919050565b6060600060076114386008805480602002602001604051908101604052809291908181526020016000905b8282101561142e5783829060005260206000200180546113a190612379565b80601f01602080910402602001604051908101604052809291908181526020018280546113cd90612379565b801561141a5780601f106113ef5761010080835404028352916020019161141a565b820191906000526020600020905b8154815290600101906020018083116113fd57829003601f168201915b505050505081526020019060010190611382565b505050508561066d565b604051602001611449929190612b78565b6040516020818303038152906040529050600060405180610160016040528061012f815260200161305b61012f913990506000818360405160200161148f929190612be8565b604051602081830303815290604052905060006114d4846114af84611825565b6040516020016114c0929190612d47565b604051602081830303815290604052611825565b9050806040516020016114e79190612dd8565b604051602081830303815290604052945050505050919050565b611597816040516024016115159190611d0c565b6040516020818303038152906040527f41304fac000000000000000000000000000000000000000000000000000000007bffffffffffffffffffffffffffffffffffffffffffffffffffffffff19166020820180517bffffffffffffffffffffffffffffffffffffffffffffffffffffffff8381831617835250505050611988565b50565b6116348383836040516024016115b293929190612dfa565b6040516020818303038152906040527f1c7ec448000000000000000000000000000000000000000000000000000000007bffffffffffffffffffffffffffffffffffffffffffffffffffffffff19166020820180517bffffffffffffffffffffffffffffffffffffffffffffffffffffffff8381831617835250505050611988565b505050565b505050565b505050565b61164d83836119b1565b61165a600084848461169e565b611699576040517f08c379a000000000000000000000000000000000000000000000000000000000815260040161169090612ac0565b60405180910390fd5b505050565b60006116bf8473ffffffffffffffffffffffffffffffffffffffff16611b8a565b15611818578373ffffffffffffffffffffffffffffffffffffffff1663150b7a026116e8610b92565b8786866040518563ffffffff1660e01b815260040161170a9493929190612e8d565b6020604051808303816000875af192505050801561174657506040513d601f19601f820116820180604052508101906117439190612eee565b60015b6117c8573d8060008114611776576040519150601f19603f3d011682016040523d82523d6000602084013e61177b565b606091505b5060008151036117c0576040517f08c379a00000000000000000000000000000000000000000000000000000000081526004016117b790612ac0565b60405180910390fd5b805181602001fd5b63150b7a0260e01b7bffffffffffffffffffffffffffffffffffffffffffffffffffffffff1916817bffffffffffffffffffffffffffffffffffffffffffffffffffffffff19161491505061181d565b600190505b949350505050565b6060600082510361184757604051806020016040528060008152509050611983565b600060405180606001604052806040815260200161318a6040913990506000600360028551611876919061291e565b611880919061299a565b600461188c9190612f1b565b67ffffffffffffffff8111156118a5576118a4611eb1565b5b6040519080825280601f01601f1916602001820160405280156118d75781602001600182028036833780820191505090505b509050600182016020820185865187015b80821015611943576003820191508151603f8160121c168501518453600184019350603f81600c1c168501518453600184019350603f8160061c168501518453600184019350603f81168501518453600184019350506118e8565b505060038651066001811461195f57600281146119725761197a565b603d6001830353603d600283035361197a565b603d60018303535b50505080925050505b919050565b60008151905060006a636f6e736f6c652e6c6f679050602083016000808483855afa5050505050565b600073ffffffffffffffffffffffffffffffffffffffff168273ffffffffffffffffffffffffffffffffffffffff1603611a20576040517f08c379a0000000000000000000000000000000000000000000000000000000008152600401611a1790612fa9565b60405180910390fd5b611a29816112eb565b15611a69576040517f08c379a0000000000000000000000000000000000000000000000000000000008152600401611a6090613015565b60405180910390fd5b611a7560008383611639565b6001600360008473ffffffffffffffffffffffffffffffffffffffff1673ffffffffffffffffffffffffffffffffffffffff1681526020019081526020016000206000828254611ac5919061291e565b92505081905550816002600083815260200190815260200160002060006101000a81548173ffffffffffffffffffffffffffffffffffffffff021916908373ffffffffffffffffffffffffffffffffffffffff160217905550808273ffffffffffffffffffffffffffffffffffffffff16600073ffffffffffffffffffffffffffffffffffffffff167fddf252ad1be2c89b69c2b068fc378daa952ba7f163c4a11628f55a4df523b3ef60405160405180910390a4611b866000838361163e565b5050565b6000808273ffffffffffffffffffffffffffffffffffffffff163b119050919050565b6000604051905090565b600080fd5b600080fd5b60007fffffffff0000000000000000000000000000000000000000000000000000000082169050919050565b611bf681611bc1565b8114611c0157600080fd5b50565b600081359050611c1381611bed565b92915050565b600060208284031215611c2f57611c2e611bb7565b5b6000611c3d84828501611c04565b91505092915050565b60008115159050919050565b611c5b81611c46565b82525050565b6000602082019050611c766000830184611c52565b92915050565b600081519050919050565b600082825260208201905092915050565b60005b83811015611cb6578082015181840152602081019050611c9b565b60008484015250505050565b6000601f19601f8301169050919050565b6000611cde82611c7c565b611ce88185611c87565b9350611cf8818560208601611c98565b611d0181611cc2565b840191505092915050565b60006020820190508181036000830152611d268184611cd3565b905092915050565b6000819050919050565b611d4181611d2e565b8114611d4c57600080fd5b50565b600081359050611d5e81611d38565b92915050565b600060208284031215611d7a57611d79611bb7565b5b6000611d8884828501611d4f565b91505092915050565b600073ffffffffffffffffffffffffffffffffffffffff82169050919050565b6000611dbc82611d91565b9050919050565b611dcc81611db1565b82525050565b6000602082019050611de76000830184611dc3565b92915050565b611df681611db1565b8114611e0157600080fd5b50565b600081359050611e1381611ded565b92915050565b60008060408385031215611e3057611e2f611bb7565b5b6000611e3e85828601611e04565b9250506020611e4f85828601611d4f565b9150509250929050565b600080600060608486031215611e7257611e71611bb7565b5b6000611e8086828701611e04565b9350506020611e9186828701611e04565b9250506040611ea286828701611d4f565b9150509250925092565b600080fd5b7f4e487b7100000000000000000000000000000000000000000000000000000000600052604160045260246000fd5b611ee982611cc2565b810181811067ffffffffffffffff82111715611f0857611f07611eb1565b5b80604052505050565b6000611f1b611bad565b9050611f278282611ee0565b919050565b600067ffffffffffffffff821115611f4757611f46611eb1565b5b602082029050602081019050919050565b600080fd5b600080fd5b600067ffffffffffffffff821115611f7d57611f7c611eb1565b5b611f8682611cc2565b9050602081019050919050565b82818337600083830152505050565b6000611fb5611fb084611f62565b611f11565b905082815260208101848484011115611fd157611fd0611f5d565b5b611fdc848285611f93565b509392505050565b600082601f830112611ff957611ff8611eac565b5b8135612009848260208601611fa2565b91505092915050565b600061202561202084611f2c565b611f11565b9050808382526020820190506020840283018581111561204857612047611f58565b5b835b8181101561208f57803567ffffffffffffffff81111561206d5761206c611eac565b5b80860161207a8982611fe4565b8552602085019450505060208101905061204a565b5050509392505050565b600082601f8301126120ae576120ad611eac565b5b81356120be848260208601612012565b91505092915050565b600080604083850312156120de576120dd611bb7565b5b600083013567ffffffffffffffff8111156120fc576120fb611bbc565b5b61210885828601612099565b925050602061211985828601611d4f565b9150509250929050565b60006020828403121561213957612138611bb7565b5b600061214784828501611e04565b91505092915050565b61215981611d2e565b82525050565b60006020820190506121746000830184612150565b92915050565b61218381611c46565b811461218e57600080fd5b50565b6000813590506121a08161217a565b92915050565b600080604083850312156121bd576121bc611bb7565b5b60006121cb85828601611e04565b92505060206121dc85828601612191565b9150509250929050565b600067ffffffffffffffff82111561220157612200611eb1565b5b61220a82611cc2565b9050602081019050919050565b600061222a612225846121e6565b611f11565b90508281526020810184848401111561224657612245611f5d565b5b612251848285611f93565b509392505050565b600082601f83011261226e5761226d611eac565b5b813561227e848260208601612217565b91505092915050565b600080600080608085870312156122a1576122a0611bb7565b5b60006122af87828801611e04565b94505060206122c087828801611e04565b93505060406122d187828801611d4f565b925050606085013567ffffffffffffffff8111156122f2576122f1611bbc565b5b6122fe87828801612259565b91505092959194509250565b6000806040838503121561232157612320611bb7565b5b600061232f85828601611e04565b925050602061234085828601611e04565b9150509250929050565b7f4e487b7100000000000000000000000000000000000000000000000000000000600052602260045260246000fd5b6000600282049050600182168061239157607f821691505b6020821081036123a4576123a361234a565b5b50919050565b7f4552433732313a20617070726f76616c20746f2063757272656e74206f776e6560008201527f7200000000000000000000000000000000000000000000000000000000000000602082015250565b6000612406602183611c87565b9150612411826123aa565b604082019050919050565b60006020820190508181036000830152612435816123f9565b9050919050565b7f4552433732313a20617070726f76652063616c6c6572206973206e6f7420746f60008201527f6b656e206f776e6572206e6f7220617070726f76656420666f7220616c6c0000602082015250565b6000612498603e83611c87565b91506124a38261243c565b604082019050919050565b600060208201905081810360008301526124c78161248b565b9050919050565b7f4552433732313a2063616c6c6572206973206e6f7420746f6b656e206f776e6560008201527f72206e6f7220617070726f766564000000000000000000000000000000000000602082015250565b600061252a602e83611c87565b9150612535826124ce565b604082019050919050565b600060208201905081810360008301526125598161251d565b9050919050565b600081905092915050565b7f52414e444f4d5f574f5244000000000000000000000000000000000000000000600082015250565b60006125a1600b83612560565b91506125ac8261256b565b600b82019050919050565b60006125c282611c7c565b6125cc8185612560565b93506125dc818560208601611c98565b80840191505092915050565b60006125f382612594565b91506125ff82846125b7565b915081905092915050565b7f4e487b7100000000000000000000000000000000000000000000000000000000600052601260045260246000fd5b600061264482611d2e565b915061264f83611d2e565b92508261265f5761265e61260a565b5b828206905092915050565b7f4e487b7100000000000000000000000000000000000000000000000000000000600052603260045260246000fd5b7f4552433732313a20696e76616c696420746f6b656e2049440000000000000000600082015250565b60006126cf601883611c87565b91506126da82612699565b602082019050919050565b600060208201905081810360008301526126fe816126c2565b9050919050565b7f4552433732313a2061646472657373207a65726f206973206e6f74206120766160008201527f6c6964206f776e65720000000000000000000000000000000000000000000000602082015250565b6000612761602983611c87565b915061276c82612705565b604082019050919050565b6000602082019050818103600083015261279081612754565b9050919050565b7f4552433732313a207472616e736665722066726f6d20696e636f72726563742060008201527f6f776e6572000000000000000000000000000000000000000000000000000000602082015250565b60006127f3602583611c87565b91506127fe82612797565b604082019050919050565b60006020820190508181036000830152612822816127e6565b9050919050565b7f4552433732313a207472616e7366657220746f20746865207a65726f2061646460008201527f7265737300000000000000000000000000000000000000000000000000000000602082015250565b6000612885602483611c87565b915061289082612829565b604082019050919050565b600060208201905081810360008301526128b481612878565b9050919050565b7f4e487b7100000000000000000000000000000000000000000000000000000000600052601160045260246000fd5b60006128f582611d2e565b915061290083611d2e565b9250828203905081811115612918576129176128bb565b5b92915050565b600061292982611d2e565b915061293483611d2e565b925082820190508082111561294c5761294b6128bb565b5b92915050565b600061295d82611d2e565b91507fffffffffffffffffffffffffffffffffffffffffffffffffffffffffffffffff820361298f5761298e6128bb565b5b600182019050919050565b60006129a582611d2e565b91506129b083611d2e565b9250826129c0576129bf61260a565b5b828204905092915050565b60006129d782846125b7565b915081905092915050565b7f4552433732313a20617070726f766520746f2063616c6c657200000000000000600082015250565b6000612a18601983611c87565b9150612a23826129e2565b602082019050919050565b60006020820190508181036000830152612a4781612a0b565b9050919050565b7f4552433732313a207472616e7366657220746f206e6f6e20455243373231526560008201527f63656976657220696d706c656d656e7465720000000000000000000000000000602082015250565b6000612aaa603283611c87565b9150612ab582612a4e565b604082019050919050565b60006020820190508181036000830152612ad981612a9d565b9050919050565b60008190508160005260206000209050919050565b60008154612b0281612379565b612b0c8186612560565b94506001821660008114612b275760018114612b3c57612b6f565b60ff1983168652811515820286019350612b6f565b612b4585612ae0565b60005b83811015612b6757815481890152600182019150602081019050612b48565b838801955050505b50505092915050565b6000612b848285612af5565b9150612b9082846125b7565b91508190509392505050565b7f3c2f746578743e3c2f7376673e00000000000000000000000000000000000000600082015250565b6000612bd2600d83612560565b9150612bdd82612b9c565b600d82019050919050565b6000612bf482856125b7565b9150612c0082846125b7565b9150612c0b82612bc5565b91508190509392505050565b7f7b226e616d65223a220000000000000000000000000000000000000000000000600082015250565b6000612c4d600983612560565b9150612c5882612c17565b600982019050919050565b7f222c20226465736372697074696f6e223a202256616c6f72616e7420616e696d60008201527f652063686172616374657273206f6e626f617264222c00000000000000000000602082015250565b6000612cbf603683612560565b9150612cca82612c63565b603682019050919050565b7f22696d616765223a20646174613a696d6167652f7376672b786d6c3b6261736560008201527f36342c0000000000000000000000000000000000000000000000000000000000602082015250565b6000612d31602383612560565b9150612d3c82612cd5565b602382019050919050565b6000612d5282612c40565b9150612d5e82856125b7565b9150612d6982612cb2565b9150612d7482612d24565b9150612d8082846125b7565b91508190509392505050565b7f646174613a6170706c69636174696f6e2f6a736f6e3b6261736536342c000000600082015250565b6000612dc2601d83612560565b9150612dcd82612d8c565b601d82019050919050565b6000612de382612db5565b9150612def82846125b7565b915081905092915050565b60006060820190508181036000830152612e148186611cd3565b9050612e236020830185612150565b612e306040830184611dc3565b949350505050565b600081519050919050565b600082825260208201905092915050565b6000612e5f82612e38565b612e698185612e43565b9350612e79818560208601611c98565b612e8281611cc2565b840191505092915050565b6000608082019050612ea26000830187611dc3565b612eaf6020830186611dc3565b612ebc6040830185612150565b8181036060830152612ece8184612e54565b905095945050505050565b600081519050612ee881611bed565b92915050565b600060208284031215612f0457612f03611bb7565b5b6000612f1284828501612ed9565b91505092915050565b6000612f2682611d2e565b9150612f3183611d2e565b9250828202612f3f81611d2e565b91508282048414831517612f5657612f556128bb565b5b5092915050565b7f4552433732313a206d696e7420746f20746865207a65726f2061646472657373600082015250565b6000612f93602083611c87565b9150612f9e82612f5d565b602082019050919050565b60006020820190508181036000830152612fc281612f86565b9050919050565b7f4552433732313a20746f6b656e20616c7265616479206d696e74656400000000600082015250565b6000612fff601c83611c87565b915061300a82612fc9565b602082019050919050565b6000602082019050818103600083015261302e81612ff2565b905091905056fe416e204e465420772f20494420257320686173206265656e206d696e74656420746f2025733c73766720786d6c6e733d27687474703a2f2f7777772e77332e6f72672f323030302f73766727207072657365727665417370656374526174696f3d27784d696e594d696e206d656574272076696577426f783d273020302033353020333530273e3c7374796c653e2e62617365207b2066696c6c3a2077686974653b20666f6e742d66616d696c793a2073657269663b20666f6e742d73697a653a20323470783b207d3c2f7374796c653e3c726563742077696474683d273130302527206865696768743d2731303025272066696c6c3d27626c61636b27202f3e3c7465787420783d273530252720793d273530252720636c6173733d27626173652720646f6d696e616e742d626173656c696e653d276d6964646c652720746578742d616e63686f723d276d6964646c65273e4142434445464748494a4b4c4d4e4f505152535455565758595a6162636465666768696a6b6c6d6e6f707172737475767778797a303132333435363738392b2fa26469706673582212203253aa65ce51a336aeefdfad38e409b796cf7064dd9ebb4132ff49ec721e2dba64736f6c63430008110033",
    "linkReferences": {},
    "deployedLinkReferences": {}
}